:020000040800F2
:10000000002800207D190008951600089D1600089C
:10001000A5160008AD160008B5160008000000007F
:10002000000000000000000000000000BD160008F5
:10003000C916000800000000D5160008E1160008E7
:10004000C5190008C5190008C5190008C519000818
:10005000C5190008C5190008C5190008C519000808
:10006000C5190008C5190008C5190008C5190008F8
:10007000C5190008C5190008C5190008C5190008E8
:10008000C5190008C5190008C5190008C5190008D8
:10009000C5190008C5190008C5190008C5190008C8
:1000A000C5190008C5190008C5190008C5190008B8
:1000B000ED160008C519000800000000C519000869
:1000C000C51900080000000000000000C519000864
:1000D00000000000C5190008C51900080000000054
:1000E000C5190008C5190008C5190008000000005E
:1000F0000000000000000000000000000000000000
:0C01000000000000000000005FF808F1A3
:10010C0010B5054C237833B9044B13B10448AFF345
:10011C0000800123237010BD50000020000000005F
:10012C00FC2F000808B5034B1BB103490348AFF380
:10013C00008008BD0000000054000020FC2F0008C7
:10014C0080B483B000AF7860094A7B6852F82330E2
:10015C00012B06D1064A7B68002142F823100123AB
:10016C0000E0002318460C37BD4680BC704700BF2A
:10017C006C00002080B582B000AF00237B6012E0E1
:10018C00444A7B6852F8232043497B6841F823207A
:10019C00424A7B6852F823203E497B6841F8232071
:1001AC007B6801337B607B68022BE9DD4FF40051E7
:1001BC003B4801F0EFFE03461A46384B1A604FF4E9
:1001CC008041374801F0E6FE03461A46334B5A602D
:1001DC004FF40041324801F0DDFE03461A462F4B26
:1001EC009A6000233B604DE02A4A3B6852F823207A
:1001FC002A493B6851F823309A4240D1264A3B6841
:10020C0052F8232023493B6851F823309A4236D1C7
:10021C00244A3B6852F8232020493B6851F823308C
:10022C009A4218D01D4A3B6852F823201D493B685E
:10023C0041F823201B4A3B6852F82330002B1ED177
:10024C00194A3B68012142F82310184A3B683221B5
:10025C0042F8231013E0154A3B6852F823305A1E1B
:10026C0012493B6841F82320104A3B6852F823306E
:10027C00002B04D10B4A3B68012142F823103B6848
:10028C0001333B603B68022BAEDD00BF00BF08377B
:10029C00BD4680BD0C00002018000020000000208E
:1002AC0000100140240000206C0000207800002089
:1002BC0080B400AF1A4B1B681A4A82FB03129210CF
:1002CC00DB17D31A184A1360154B1968154B83FBAF
:1002DC0001239A10CB17D21A13469B0013445B00D0
:1002EC00CA1A114B5A60114B1B680E4A82FB03123F
:1002FC009210DB17D31A0C4A93600C4B1968094BFC
:10030C0083FB01239A10CB17D21A13469B0013447C
:10031C005B00CA1A044BDA6000BFBD4680BC704754
:10032C009C0000206766666684000020A000002008
:10033C0080B500AF0B4B9B68012B10D10A4B1B688F
:10034C00013B094A1360094B1B68013B074A1360C8
:10035C00FFF7AEFF4FF47A71022001F0EFF800BF07
:10036C0080BD00BF200400209C000020A0000020C5
:10037C0080B500AF614B1B68042B00F2B38001A267
:10038C0052F823F0A5030008B9030008070400087D
:10039C0055040008A3040008FFF78AFF574B0122FD
:1003AC001A60FA21012001F0C9F8A4E000224021D2
:1003BC00534801F006FE01228021514801F001FE54
:1003CC0001224FF480714E4801F0FBFD01224FF4E5
:1003DC0000714B4801F0F5FD4A4B1B68184600F0C4
:1003EC001BFB494B5B68012B7ED1444B02221A60EC
:1003FC00FA21012001F0A2F876E0012240214048C8
:10040C0001F0DFFD002280213D4801F0DAFD0122E0
:10041C004FF480713A4801F0D4FD01224FF4007181
:10042C00374801F0CEFD374B5B68184600F0F4FA04
:10043C00354B5B68012B59D1304B03221A60FA21E2
:10044C00012001F07BF851E0012240212C4801F001
:10045C00B8FD012280212A4801F0B3FD00224FF49F
:10046C008071274801F0ADFD01224FF40071244842
:10047C0001F0A7FD234B9B68184600F0CDFA224BE8
:10048C005B68012B34D11D4B04221A60FA21012028
:10049C0001F054F82CE001224021194801F091FDA3
:1004AC0001228021164801F08CFD01224FF480714D
:1004BC00134801F086FD00224FF40071104801F042
:1004CC0080FD104BDB68184600F0A6FA0E4B5B68FB
:1004DC00012B0FD1094B01221A60FA21012001F0E6
:1004EC002DF807E000BF06E000BF04E000BF02E00B
:1004FC0000BF00E000BF00BF80BD00BF9400002023
:10050C0000080140840000202004002080B500AFCA
:10051C00434B1B68042B78D801A252F823F000BF80
:10052C00410500086705000893050008BF05000891
:10053C00EB0500083B4B1B683B4A13603B4B1B68AD
:10054C003B4A1360FFF7B4FE4FF47A71022000F0BF
:10055C00F5FF334B01221A6060E001F0E7F801F07F
:10056C0011F9314B1B68002B51D1324B1B682E4AB1
:10057C001360304B1B682E4A1360FFF799FE284B13
:10058C0002221A6043E001F0E7F801F0FBF8264B79
:10059C001B68002B3DD1254B1B68234A1360214B54
:1005AC001B68234A1360FFF783FE1D4B03221A605E
:1005BC002FE001F0A5F801F0FBF81D4B1B68002B98
:1005CC0029D11C4B1B68184A13601A4B1B68184A1C
:1005DC001360FFF76DFE124B04221A601BE001F052
:1005EC00FDF801F08DF8124B1B68002B15D10D4B4B
:1005FC001B680D4A13600D4B1B680D4A1360FFF707
:10060C0057FE074B01221A6007E000BF06E000BF4F
:10061C0004E000BF02E000BF00E000BF00BF80BDEF
:10062C0098000020380000209C000020340000209E
:10063C00A00000203C00002080B500AFFFF766FF53
:10064C00FFF796FEFFF774FE00BF80BD80B400AFCD
:10065C00074B1B680133064A1360054B1B68642B60
:10066C0002D1034B00221A6000BFBD4680BC70470C
:10067C009C00002080B500AF8D4B1B68013B032B09
:10068C0000F2B68101A252F823F000BFA9060008BF
:10069C00E90600086B070008ED070008FFF7CCFF20
:1006AC000020FFF74DFD0346002B00F0A381814B8A
:1006BC0000221A60804B02221A60FFF7F9FD7F4B73
:1006CC0000221A607A4B02221A60FA21032000F0F1
:1006DC0035FFFA21042000F031FF8BE101F094F892
:1006EC0001F0ECF80120FFF72BFD0346002B03D0A3
:1006FC00FFF7ACFFFFF7DCFD0020FFF721FD034601
:10070C00002B11D06E4B4FF0FF321A60694B002258
:10071C001A60694B03221A60FFF7CAFD674B00226F
:10072C001A60634B03221A600220FFF709FD03468F
:10073C00002B11D05F4B1B68614A13605D4B00228C
:10074C001A605D4B03221A60FFF7B2FD5B4B00226F
:10075C001A60574B03221A60FFF70AFE4BE101F0B7
:10076C008FF801F0E7F80120FFF7EAFC0346002BB5
:10077C0003D0FFF76BFFFFF79BFD0020FFF7E0FCBA
:10078C000346002B11D04F4B4FF0FF321A60494BF0
:10079C0000221A60484B04221A60FFF789FD474B70
:1007AC0000221A60424B04221A600220FFF7C8FC98
:1007BC000346002B11D03F4B1B68424A13603D4B44
:1007CC0000221A603C4B04221A60FFF771FD3B4B70
:1007DC0000221A60364B04221A60FFF7C9FD0AE1A9
:1007EC0001F030F801F088F80120FFF7A9FC03466E
:1007FC00002B03D0FFF72AFFFFF75AFD0020FFF76D
:10080C009FFC0346002B7CD02F4B4FF0FF321A601D
:10081C002B4B1B68B3F1FF3F04D12B4B1B68B3F17F
:10082C00FF3F13D0284B1B68B3F1FF3F04D1254B7E
:10083C001B68B3F1FF3F09D0224B1B68B3F1FF3F9C
:10084C000ED11F4B1B68B3F1FF3F09D11C4B052286
:10085C001A601D4B03221A601A4B02221A6047E0E1
:10086C00174B1B68B3F1FF3F07D1174B1A68154B99
:10087C001B681344124A13603AE0134B1B68B3F124
:10088C00FF3F07D10E4B1A680E4B1B68D31A0E4A4A
:10089C0013602DE00B4B1B68B3F1FF3F16D1084BD7
:1008AC001A68094B1B68D31A064A136020E000BF74
:1008BC00300000209C000020A000002094000020AC
:1008CC00340000203C000020380000204B4B1A68FC
:1008DC004B4B1B681A444B4B1B689A4208D0494B34
:1008EC0005221A60454B03221A60454B02221A60FE
:1008FC00454B00221A60454B00221A60444B0122E2
:10090C001A600220FFF71CFC0346002B6DD0414BF4
:10091C001B683A4A13603B4B1B68B3F1FF3F04D191
:10092C00364B1B68B3F1FF3F13D0344B1B68B3F14C
:10093C00FF3F04D1324B1B68B3F1FF3F09D0304B62
:10094C001B68B3F1FF3F0ED12E4B1B68B3F1FF3F79
:10095C0009D12C4B05221A60284B03221A60284B14
:10096C0002221A6038E0274B1B68B3F1FF3F07D116
:10097C00224B1A68224B1B681344224A13602BE04B
:10098C001E4B1B68B3F1FF3F07D11E4B1A681C4B63
:10099C001B68D31A194A13601EE0194B1B68B3F17C
:1009AC00FF3F07D1174B1A68144B1B68D31A144A14
:1009BC00136011E0114B1A68114B1B681A44114B50
:1009CC001B689A4208D00F4B05221A600B4B03226E
:1009DC001A600B4B02221A600B4B00221A600B4B55
:1009EC0000221A600A4B01221A60FFF7C1FC02E0D8
:1009FC0000BF00E000BF00BF80BD00BF380000207A
:100A0C003C000020340000209400002098000020BE
:100A1C00300000209C00002080B582B000AF7860D0
:100A2C007B68092B34D801A252F823F0610A000824
:100A3C00670A00086D0A0008730A0008790A0008A2
:100A4C007F0A0008850A00088B0A0008910A000832
:100A5C00970A000800F022F81BE000F049F818E0B3
:100A6C0000F070F815E000F097F812E000F0BEF816
:100A7C000FE000F0E5F80CE000F00CF909E000F0F4
:100A8C0033F906E000F05AF903E000F081F900E0D8
:100A9C0000BF00BF0837BD4680BD00BF80B500AFAA
:100AAC0000220121114801F08CFA002202210F488A
:100ABC0001F087FA002204210C4801F082FA00228E
:100ACC0008210A4801F07DFA00221021074801F0A4
:100ADC0078FA00222021054801F073FA0122402106
:100AEC00024801F06EFA00BF80BD00BF000C01404F
:100AFC0080B500AF01220121114801F062FA0022F9
:100B0C0002210F4801F05DFA002204210C4801F08B
:100B1C0058FA012208210A4801F053FA0122102147
:100B2C00074801F04EFA01222021054801F049FA4C
:100B3C0001224021024801F044FA00BF80BD00BFF1
:100B4C00000C014080B500AF00220121114801F0DA
:100B5C0038FA002202210F4801F033FA0122042155
:100B6C000C4801F02EFA002208210A4801F029FA5B
:100B7C0000221021074801F024FA01222021054807
:100B8C0001F01FFA00224021024801F01AFA00BFBE
:100B9C0080BD00BF000C014080B500AF00220121D8
:100BAC00114801F00EFA002202210F4801F009FA57
:100BBC00002204210C4801F004FA002208210A4802
:100BCC0001F0FFF901221021074801F0FAF9012286
:100BDC002021054801F0F5F900224021024801F0DE
:100BEC00F0F900BF80BD00BF000C014080B500AF24
:100BFC0001220121114801F0E4F9002202210F48E1
:100C0C0001F0DFF9002204210C4801F0DAF901228D
:100C1C0008210A4801F0D5F901221021074801F0FA
:100C2C00D0F900222021054801F0CBF90022402107
:100C3C00024801F0C6F900BF80BD00BF000C0140A6
:100C4C0080B500AF00220121114801F0BAF9012250
:100C5C0002210F4801F0B5F9002204210C4801F0E3
:100C6C00B0F9002208210A4801F0ABF90122102149
:100C7C00074801F0A6F900222021054801F0A1F94E
:100C8C0000224021024801F09CF900BF80BD00BF4A
:100C9C00000C014080B500AF00220121114801F089
:100CAC0090F9012202210F4801F08BF90022042156
:100CBC000C4801F086F9002208210A4801F081F95C
:100CCC0000221021074801F07CF900222021054860
:100CDC0001F077F900224021024801F072F900BFBF
:100CEC0080BD00BF000C014080B500AF0022012187
:100CFC00114801F066F9002202210F4801F061F958
:100D0C00002204210C4801F05CF9012208210A4858
:100D1C0001F057F901221021074801F052F9012284
:100D2C002021054801F04DF901224021024801F033
:100D3C0048F900BF80BD00BF000C014080B500AF7A
:100D4C0000220121114801F03CF9002202210F4838
:100D5C0001F037F9002204210C4801F032F900228D
:100D6C0008210A4801F02DF900221021074801F052
:100D7C0028F900222021054801F023F90022402106
:100D8C00024801F01EF900BF80BD00BF000C0140FD
:100D9C0080B500AF00220121114801F012F90022A8
:100DAC0002210F4801F00DF9002204210C4801F03A
:100DBC0008F9002208210A4801F003F90122102148
:100DCC00074801F0FEF800222021054801F0F9F84F
:100DDC0000224021024801F0F4F800BF80BD00BFA2
:100DEC00000C014080B500AF4FF48061024801F067
:100DFC0000F900BF80BD00BF000C014080B500AF02
:100E0C0000F0DCFD00F02CF800F0B2F800F064F813
:100E1C000E4801F035FD00F02DF90A2200210C4896
:100E2C0000F082F90A220A210A4800F07DF90A2210
:100E3C001421094800F078F94FF47A720021074820
:100E4C0000F072F900F006FBFCE700BFA4000020E4
:100E5C00810600088915000881010008F10D0008C1
:100E6C0080B590B000AF07F1180328220021184676
:100E7C0002F092F83B1D00221A605A609A60DA6008
:100E8C001A610223BB610123BB621023FB620023A6
:100E9C007B6307F11803184601F0C4F80346002BD6
:100EAC0001D000F0E1F80F237B600023BB6000232E
:100EBC00FB6000233B6100237B613B1D0021184636
:100ECC0001F032FB0346002B01D000F0CDF800BF3F
:100EDC004037BD4680BD000080B586B000AF07F13D
:100EEC00080300221A605A609A60DA603B460022BE
:100EFC001A605A601D4B4FF080421A601B4B41F632
:100F0C003F725A60194B00229A60184B0922DA6022
:100F1C00164B00221A61154B00229A61134801F0FE
:100F2C005FFC0346002B01D000F09EF84FF4805379
:100F3C00BB6007F1080319460C4801F0DDFD0346C0
:100F4C00002B01D000F090F800233B6000237B6065
:100F5C003B461946054801F0B5FF0346002B01D06E
:100F6C0000F082F800BF1837BD4680BDA4000020F9
:100F7C0080B588B000AF07F1100300221A605A60E8
:100F8C009A60DA602F4B9B692E4A43F010039361F1
:100F9C002C4B9B6903F01003FB60FB68294B9B698E
:100FAC00284A43F004039361264B9B6903F0040326
:100FBC00BB60BB68234B9B69224A43F008039361D7
:100FCC00204B9B6903F008037B607B68002240F296
:100FDC00FF311D4800F0F5FF002240F27F411B4815
:100FEC0000F0EFFF4FF460433B6100237B61012372
:100FFC00BB6107F110031946154800F04FFE40F293
:10100C00FF333B6101237B610023BB610223FB6146
:10101C0007F1100319460C4800F040FE40F27F43E4
:10102C003B6101237B610023BB610223FB6107F160
:10103C0010031946054800F031FE00BF2037BD46AD
:10104C0080BD00BF0010024000080140000C0140B0
:10105C000010014080B582B000AF786000F06CF9F0
:10106C0000BF0837BD4680BD80B400AF72B600BF6C
:10107C0000BFFDE780B582B000AF0023FB7106E036
:10108C00FB79184600F010F8FB790133FB71FB7902
:10109C00272BF5D9034BFF221A6000BF0837BD463A
:1010AC0080BD00BF4000002080B483B000AF034679
:1010BC00FB71FA791B4913469B0013449B000B44AC
:1010CC001B68002B01D1002327E0FA791549134640
:1010DC009B0013449B000B4400221A60FA791149BF
:1010EC0013469B0013449B000B44043300221A60EC
:1010FC00FA790C4913469B0013449B000B440833AC
:10110C0000221A60FA79074913469B0013449B008E
:10111C000B440C3300221A70012318460C37BD46C1
:10112C0080BC7047EC00002080B489B000AFF86040
:10113C00B9607A600023FB77BB687C4AA2FB03236F
:10114C00DB08BB617B68794AA2FB0323DB083B61AC
:10115C0002E0FB7F0133FB77FA7F754913469B0056
:10116C0013449B000B441B68002B02D0FB7F272BE6
:10117C00EFD9FB7F282B01D12823D1E0FA7F6C49D2
:10118C0013469B0013449B000B44FA681A60FA7FC9
:10119C00674913469B0013449B000B440433BA6904
:1011AC001A60FA7F624913469B0013449B000B4460
:1011BC0008333A691A60FA7F5D4913469B00134461
:1011CC009B000B440C3300221A705A4B1B68FF2BEC
:1011DC000ED1FB7F574A1360FA7F554913469B008B
:1011EC0013449B000B441033FF221A60FB7F97E0E3
:1011FC00504B1A684E4913469B0013449B000B44FA
:10120C0004331B68BA699A4225D24A4B1A6848497A
:10121C0013469B0013449B000B4404331968454B45
:10122C001A68BB69C91A424813469B0013449B00B9
:10123C00034404331960FA7F3E4B19683C4813464B
:10124C009B0013449B00034410331960FB7F394A05
:10125C001360FB7F64E0374B1B68FB75FF23BB758A
:10126C0023E0FA7D324913469B0013449B000B4448
:10127C0004331B68BA699A421BD3FA7D2C49134676
:10128C009B0013449B000B4404331B68BA69D31AAC
:10129C00BB61FB7DBB75FA7D254913469B0013444E
:1012AC009B000B4410331B68FB75FB7DFF2BD8D1C7
:1012BC0000E000BFFA7F1E4913469B0013449B00BD
:1012CC000B440433BA691A60FA7FF97D1848134647
:1012DC009B0013449B00034410331960BA7DF97FC3
:1012EC00134813469B0013449B00034410331960AE
:1012FC00FB7DFF2B13D0FA7D0D4913469B00134445
:10130C009B000B4404331968FA7DBB69C91A084861
:10131C0013469B0013449B00034404331960FB7F6A
:10132C0018462437BD4680BC704700BFCDCCCCCC12
:10133C00EC0000204000002080B483B000AF434B91
:10134C001B68FF2B7CD0414B1A68414913469B000C
:10135C0013449B000B4404331B68002B12D03B4BF3
:10136C001A683B4913469B0013449B000B440433FF
:10137C001B68591E364813469B0013449B000344BC
:10138C0004331960314B1A68314913469B001344DE
:10139C009B000B4404331B68002B51D12B4B1A6858
:1013AC002B4913469B0013449B000B440C331B78B6
:1013BC00264A12680133D8B2254913469B001344C0
:1013CC009B000B440C3302461A70204B1A682049C0
:1013DC0013469B0013449B000B4410331B687B602B
:1013EC0029E01B497A6813469B0013449B000B446D
:1013FC0004331B68002B22D115497A6813469B00D5
:10140C0013449B000B440C331B780133D8B21049A6
:10141C007A6813469B0013449B000B440C33024622
:10142C001A700B497A6813469B0013449B000B44BB
:10143C0010331B687B607B68FF2BD2D100E000BFB0
:10144C0000BF0C37BD4680BC704700BF4000002079
:10145C00EC000020B0B586B000AF364B1B68FF2BFC
:10146C0064D0344B1A68344913469B0013449B00D8
:10147C000B440C331B78002B58D02E4B1A682E497A
:10148C0013469B0013449B000B441B689847294B45
:10149C001A68294913469B0013449B000B440C33D8
:1014AC001B78244A1268013BD8B2234913469B008F
:1014BC0013449B000B440C3302461A701D4B1A68E4
:1014CC001D4913469B0013449B000B443C461D4690
:1014DC000FCD0FC42B682360164B1B68FB75154B87
:1014EC001A68154913469B0013449B000B44103398
:1014FC001B68104A1360FA7D0F4913469B00134476
:10150C009B000B4400221A60BB68002B0ED038687D
:10151C00BA6813469B0013445B001946BA6813461D
:10152C009B0013445B001A46FFF7FEFD00BF183703
:10153C00BD46B0BD40000020EC00002080B483B05C
:10154C0000AF786039603B68094A82FB0312921045
:10155C00DB17D21A07497B6841F82320064A7B68BF
:10156C00002142F8231000BF0C37BD4680BC7047E9
:10157C00676666660C0400202004002080B483B0EB
:10158C0000AF00237B601CE0124A7B6852F82330CA
:10159C00002B13DD0F4A7B6852F823305A1E0D497D
:1015AC007B6841F823200B4A7B6852F82330002BD0
:1015BC0004DC094A7B68012142F823107B68013363
:1015CC007B607B68042BDFDD00BF00BF0C37BD46A2
:1015DC0080BC70470C0400202004002080B485B02F
:1015EC0000AF154B9B69144A43F001039361124BF6
:1015FC009B6903F00103BB60BB680F4BDB690E4AB0
:10160C0043F08053D3610C4BDB6903F080537B6058
:10161C007B680A4B5B68FB60FB6823F0E063FB6054
:10162C00FB6843F08063FB60044AFB68536000BFB7
:10163C001437BD4680BC70470010024000000140CA
:10164C0080B584B000AF78607B681B68B3F1804FC5
:10165C0013D10C4BDB690B4A43F00103D361094BEB
:10166C00DB6903F00103FB60FB68002200211C20F6
:10167C0000F0DDFA1C2000F0F6FA00BF1037BD4672
:10168C0080BD00BF0010024080B400AF00BFFDE77A
:10169C0080B400AF00BFFDE780B400AF00BFFDE732
:1016AC0080B400AF00BFFDE780B400AF00BFFDE722
:1016BC0080B400AF00BFBD4680BC704780B400AFA3
:1016CC0000BFBD4680BC704780B400AF00BFBD46B4
:1016DC0080BC704780B500AF00F0B6F900BF80BD8C
:1016EC0080B500AF024801F017F900BF80BD00BF04
:1016FC00A400002080B400AF00BFBD4680BC704782
:10170C0080B500AF00220121074800F05AFC0122ED
:10171C000221054800F055FC01220421024800F08A
:10172C0050FC00BF80BD00BF0008014080B500AF79
:10173C0001220121074800F044FC00220221054847
:10174C0000F03FFC01220421024800F03AFC00BFEB
:10175C0080BD00BF0008014080B500AF012201210F
:10176C00074800F02EFC01220221054800F029FC5C
:10177C0000220421024800F024FC00BF80BD00BF01
:10178C000008014080B500AF00220821074800F096
:10179C0018FC01221021054800F013FC0122202125
:1017AC00024800F00EFC00BF80BD00BF00080140E5
:1017BC0080B500AF01220821074800F002FC00228E
:1017CC001021054800F0FDFB01222021024800F009
:1017DC00F8FB00BF80BD00BF0008014080B500AF22
:1017EC0001220821074800F0ECFB012210210548DA
:1017FC0000F0E7FB00222021024800F0E2FB00BFD2
:10180C0080BD00BF0008014080B500AF0B4BDB680A
:10181C00012B07D101210A4800F0EBFBFA21032030
:10182C00FFF78CFE01220221054800F0CAFB0122C1
:10183C000421034800F0C5FB00BF80BD200400203C
:10184C000008014080B500AF012201210A4800F0D8
:10185C00B8FB0A4BDB68012B07D10221064800F0CC
:10186C00C8FBFA210320FFF769FE0122042102487C
:10187C0000F0A7FB00BF80BD000801402004002041
:10188C0080B500AF012201210A4800F09AFB012229
:10189C000221084800F095FB074BDB68012B07D1B0
:1018AC000421044800F0A5FBFA210320FFF746FEB3
:1018BC0000BF80BD000801402004002080B500AFAF
:1018CC000B4B1B69012B07D108210A4800F091FB37
:1018DC00FA210420FFF732FE01221021054800F006
:1018EC0070FB01222021034800F06BFB00BF80BD80
:1018FC00200400200008014080B500AF012208211F
:10190C000A4800F05EFB0A4B1B69012B07D1102122
:10191C00064800F06EFBFA210420FFF70FFE0122AF
:10192C002021024800F04DFB00BF80BD00080140A3
:10193C002004002080B500AF012208210A4800F0E5
:10194C0040FB01221021084800F03BFB074B1B69B0
:10195C00012B07D12021044800F04BFBFA21042075
:10196C00FFF7ECFD00BF80BD000801402004002003
:10197C00FFF7C0FE0B480C490C4A002302E0D45878
:10198C00C4500433C4188C42F9D3094A094C0023BF
:10199C0001E013600432A242FBD301F005FBFFF718
:1019AC002DFA704700000020500000204030000845
:1019BC005000002038040020FEE7000080B500AF86
:1019CC00084B1B68074A43F010031360032000F018
:1019DC0023F90F2000F008F8FFF700FE002318464B
:1019EC0080BD00BF0020024080B582B000AF78609F
:1019FC00124B1A68124B1B7819464FF47A73B3FBCF
:101A0C00F1F3B2FBF3F3184600F03BF90346002B5D
:101A1C0001D001230EE07B680F2B0AD800227968D5
:101A2C004FF0FF3000F003F9064A7B681360002387
:101A3C0000E0012318460837BD4680BD4400002055
:101A4C004C0000204800002080B400AF054B1B78F0
:101A5C001A46054B1B681344034A136000BFBD466E
:101A6C0080BC70474C0000203404002080B400AFD0
:101A7C00024B1B681846BD4680BC704734040020DE
:101A8C0080B485B000AF78607B6803F00703FB601F
:101A9C000C4BDB68BB60BA684FF6FF031340BB60AE
:101AAC00FB681A02BB68134343F0BF6343F4003373
:101ABC00BB60044ABB68D36000BF1437BD4680BC12
:101ACC00704700BF00ED00E080B400AF044BDB6852
:101ADC001B0A03F007031846BD4680BC704700BFC5
:101AEC0000ED00E080B483B000AF0346FB7197F9C2
:101AFC000730002B0BDBFB7903F01F02064997F92B
:101B0C0007305B09012000FA02F241F8232000BFE4
:101B1C000C37BD4680BC704700E100E080B483B058
:101B2C0000AF03463960FB7197F90730002B0ADBD5
:101B3C003B68DAB20C4997F907301201D2B20B4468
:101B4C0083F800230AE03B68DAB20849FB7903F01A
:101B5C000F03043B1201D2B20B441A7600BF0C37B0
:101B6C00BD4680BC704700BF00E100E000ED00E026
:101B7C0080B489B000AFF860B9607A60FB6803F09C
:101B8C000703FB61FB69C3F10703042B28BF042384
:101B9C00BB61FB690433062B02D9FB69033B00E0F4
:101BAC0000237B614FF0FF32BB6902FA03F3DA4387
:101BBC00BB681A407B699A404FF0FF317B6901FA90
:101BCC0003F3D9437B680B40134318462437BD46B7
:101BDC0080BC704780B582B000AF78607B68013BF9
:101BEC00B3F1807F01D301230FE00A4A7B68013BEC
:101BFC0053600F214FF0FF30FFF790FF054B002291
:101C0C009A60044B07221A60002318460837BD4619
:101C1C0080BD00BF10E000E080B582B000AF7860FE
:101C2C007868FFF72DFF00BF0837BD4680BD80B533
:101C3C0086B000AF0346B9607A60FB7300237B610A
:101C4C00FFF742FF78617A68B9687869FFF790FF0F
:101C5C00024697F90F3011461846FFF75FFF00BF99
:101C6C001837BD4680BD80B582B000AF0346FB710E
:101C7C0097F907301846FFF735FF00BF0837BD4608
:101C8C0080BD80B582B000AF78607868FFF7A2FFA6
:101C9C00034618460837BD4680BD000080B48BB0A3
:101CAC0000AF7860396000237B6200233B6261E106
:101CBC0001227B6A02FA03F3FB613B681B68FA6939
:101CCC001340BB61BA69FB699A4240F050813B6892
:101CDC005B68974A93425ED0954A934275D8954A71
:101CEC00934258D0934A93426FD8934A934252D01E
:101CFC00914A934269D8914A93424CD08F4A93426D
:101D0C0063D88F4A934246D08D4A93425DD8122BAA
:101D1C002AD8122B59D801A252F823F0A31D00087F
:101D2C007D1D00088F1D0008D11D0008D71D00085F
:101D3C00D71D0008D71D0008D71D0008D71D0008A7
:101D4C00D71D0008D71D0008D71D0008D71D000897
:101D5C00D71D0008D71D0008D71D0008D71D000887
:101D6C00851D0008991D0008764A934213D02CE07B
:101D7C003B68DB683B6229E03B68DB6804333B6211
:101D8C0024E03B68DB6808333B621FE03B68DB68A0
:101D9C000C333B621AE03B689B68002B02D1042396
:101DAC003B6213E03B689B68012B05D108233B6227
:101DBC007B68FA691A6109E008233B627B68FA695F
:101DCC005A6103E000233B6200E000BFBB69FF2BBC
:101DDC0001D87B6801E07B6804337B61BB69FF2B16
:101DEC0002D87B6A9B0002E07B6A083B9B003B614C
:101DFC007B691A680F213B6901FA03F3DB431A4034
:101E0C00396A3B6901FA03F31A437B691A603B6830
:101E1C005B6803F08053002B00F0A9804A4B9B6950
:101E2C00494A43F001039361474B9B6903F001035B
:101E3C00BB60BB68454A7B6A9B08023352F823306F
:101E4C00FB607B6A03F003039B000F2202FA03F38F
:101E5C00DB43FA681340FB607B683D4A93420DD02C
:101E6C007B683C4A934207D07B683B4A934201D142
:101E7C00022304E0032302E0012300E000237A6A3A
:101E8C0002F0030292009340FA681343FB602F495F
:101E9C007B6A9B080233FA6841F823203B685B6835
:101EAC0003F48013002B06D02C4B9A682B49BB698A
:101EBC0013438B6006E0294B9A68BB69DB432749C7
:101ECC0013408B603B685B6803F40013002B06D057
:101EDC00224BDA682149BB691343CB6006E01F4BE8
:101EEC00DA68BB69DB431D491340CB603B685B6818
:101EFC0003F40033002B06D0184B5A681749BB6902
:101F0C0013434B6006E0154B5A68BB69DB4313491E
:101F1C0013404B603B685B6803F48033002B1FD08D
:101F2C000E4B1A680D49BB6913430B601FE000BFD1
:101F3C0000003210000031100000221000002110AF
:101F4C0000001210000011100010024000000140AF
:101F5C0000080140000C0140001001400004014049
:101F6C000B4B1A68BB69DB43094913400B607B6A56
:101F7C0001337B623B681A687B6A22FA03F3002BFD
:101F8C007FF496AE00BF00BF2C37BD4680BC7047B7
:101F9C000004014080B485B000AF78600B467B80B4
:101FAC007B689A687B881340002B02D00123FB735B
:101FBC0001E00023FB73FB7B18461437BD4680BC45
:101FCC00704780B483B000AF78600B467B801346BB
:101FDC007B707B78002B03D07A887B681A6103E0D6
:101FEC007B881A047B681A6100BF0C37BD4680BC25
:101FFC00704780B485B000AF78600B467B807B68FF
:10200C00DB68FB607A88FB6813401A04FB68D943D1
:10201C007B880B401A437B681A6100BF1437BD469E
:10202C0080BC704780B586B000AF78607B68002BB1
:10203C0001D1012372E27B681B6803F00103002BC2
:10204C0000F08780924B5B6803F00C03042B0CD0E0
:10205C008F4B5B6803F00C03082B12D18C4B5B6825
:10206C0003F48033B3F5803F0BD1894B1B6803F429
:10207C000033002B6CD07B685B68002B68D101238C
:10208C004CE27B685B68B3F5803F06D1804B1B68E4
:10209C007F4A43F4803313602EE07B685B68002B2F
:1020AC000CD17B4B1B687A4A23F480331360784B3A
:1020BC001B68774A23F4802313601DE07B685B6800
:1020CC00B3F5A02F0CD1724B1B68714A43F48023DB
:1020DC0013606F4B1B686E4A43F4803313600BE044
:1020EC006B4B1B686A4A23F480331360684B1B6884
:1020FC00674A23F4802313607B685B68002B13D042
:10210C00FFF7B4FC386108E0FFF7B0FC02463B690E
:10211C00D31A642B01D9032300E25D4B1B6803F433
:10212C000033002BF0D014E0FFF7A0FC386108E07E
:10213C00FFF79CFC02463B69D31A642B01D903239D
:10214C00ECE1534B1B6803F40033002BF0D100E09F
:10215C0000BF7B681B6803F00203002B63D04C4B61
:10216C005B6803F00C03002B0BD0494B5B6803F04E
:10217C000C03082B1CD1464B5B6803F48033002BFB
:10218C0016D1434B1B6803F00203002B05D07B6870
:10219C001B69012B01D00123C0E13D4B1B6823F0CF
:1021AC00F8027B685B69DB00394913430B603AE04A
:1021BC007B681B69002B20D0364B01221A60FFF77D
:1021CC0055FC386108E0FFF751FC02463B69D31A15
:1021DC00022B01D90323A1E12D4B1B6803F0020351
:1021EC00002BF0D02A4B1B6823F0F8027B685B694C
:1021FC00DB00274913430B6015E0264B00221A60C5
:10220C00FFF734FC386108E0FFF730FC02463B690D
:10221C00D31A022B01D9032380E11D4B1B6803F059
:10222C000203002BF0D17B681B6803F00803002B22
:10223C003AD07B689B69002B19D0174B01221A608E
:10224C00FFF714FC386108E0FFF710FC02463B690D
:10225C00D31A022B01D9032360E10D4B5B6A03F007
:10226C000203002BF0D0012000F09CFA1CE00A4B7A
:10227C0000221A60FFF7FAFB38610FE0FFF7F6FB5C
:10228C0002463B69D31A022B08D9032346E100BF4F
:10229C00001002400000424280044242924B5B6AB2
:1022AC0003F00203002BE9D17B681B6803F00403E5
:1022BC00002B00F0A6800023FB758B4BDB6903F031
:1022CC008053002B0DD1884BDB69874A43F0805338
:1022DC00D361854BDB6903F08053BB60BB68012382
:1022EC00FB75824B1B6803F48073002B18D17F4B5A
:1022FC001B687E4A43F480731360FFF7B7FB3861A9
:10230C0008E0FFF7B3FB02463B69D31A642B01D9F3
:10231C00032303E1754B1B6803F48073002BF0D08F
:10232C007B68DB68012B06D16F4B1B6A6E4A43F04E
:10233C00010313622DE07B68DB68002B0CD16A4B28
:10234C001B6A694A23F001031362674B1B6A664AD6
:10235C0023F0040313621CE07B68DB68052B0CD1B3
:10236C00614B1B6A604A43F0040313625E4B1B6AA9
:10237C005D4A43F0010313620BE05B4B1B6A5A4A44
:10238C0023F001031362584B1B6A574A23F00403D2
:10239C0013627B68DB68002B15D0FFF767FB386195
:1023AC000AE0FFF763FB02463B69D31A41F288321D
:1023BC00934201D90323B1E04B4B1B6A03F0020398
:1023CC00002BEED014E0FFF751FB38610AE0FFF769
:1023DC004DFB02463B69D31A41F28832934201D934
:1023EC0003239BE0404B1B6A03F00203002BEED14E
:1023FC00FB7D012B05D13C4BDB693B4A23F0805321
:10240C00D3617B68DB69002B00F08780364B5B68FF
:10241C0003F00C03082B61D07B68DB69022B46D1DF
:10242C00334B00221A60FFF721FB386108E0FFF7FD
:10243C001DFB02463B69D31A022B01D903236DE025
:10244C00294B1B6803F00073002BF0D17B681B6ACF
:10245C00B3F5803F08D1244B5B6823F400327B68D2
:10246C009B68214913434B601F4B5B6823F4741228
:10247C007B68196A7B685B6A0B431B4913434B608F
:10248C001B4B01221A60FFF7F1FA386108E0FFF7E5
:10249C00EDFA02463B69D31A022B01D903233DE026
:1024AC00114B1B6803F00073002BF0D035E0104B80
:1024BC0000221A60FFF7DAFA386108E0FFF7D6FA63
:1024CC0002463B69D31A022B01D9032326E0064BA3
:1024DC001B6803F00073002BF0D11EE07B68DB69F6
:1024EC00012B07D1012319E00010024000700040BD
:1024FC00600042420B4B5B68FB60FB6803F480326C
:10250C007B681B6A9A4206D1FB6803F470127B68E5
:10251C005B6A9A4201D0012300E000231846183769
:10252C00BD4680BD0010024080B584B000AF78601D
:10253C0039607B68002B01D10123D0E06A4B1B680A
:10254C0003F007033A689A4210D9674B1B6823F0D3
:10255C00070265493B6813430B60634B1B6803F030
:10256C0007033A689A4201D00123B8E07B681B68E4
:10257C0003F00203002B20D07B681B6803F00403DC
:10258C00002B05D0594B5B68584A43F4E063536009
:10259C007B681B6803F00803002B05D0534B5B686A
:1025AC00524A43F460535360504B5B6823F0F00283
:1025BC007B689B684D4913434B607B681B6803F039
:1025CC000103002B40D07B685B68012B07D1474B84
:1025DC001B6803F40033002B15D101237FE07B68CB
:1025EC005B68022B07D1414B1B6803F00073002B77
:1025FC0009D1012373E03D4B1B6803F00203002B50
:10260C0001D101236BE0394B5B6823F003027B683B
:10261C005B68364913434B60FFF728FAF8600AE011
:10262C00FFF724FA0246FB68D31A41F28832934230
:10263C0001D9032353E02D4B5B6803F00C027B683C
:10264C005B689B009A42EBD1274B1B6803F0070396
:10265C003A689A4210D2244B1B6823F00702224995
:10266C003B6813430B60204B1B6803F007033A686D
:10267C009A4201D0012332E07B681B6803F004030B
:10268C00002B08D0194B5B6823F4E0627B68DB6895
:10269C00164913434B607B681B6803F00803002B3F
:1026AC0009D0124B5B6823F460527B681B69DB001A
:1026BC000E4913434B6000F021F802460B4B5B684C
:1026CC001B0903F00F030A49CB5C22FA03F3094AF6
:1026DC001360094B1B681846FFF786F90023184650
:1026EC001037BD4680BD00BF0020024000100240E4
:1026FC0014300008440000204800002080B487B04B
:10270C0000AF0023FB600023BB6000237B61002330
:10271C007B6000233B611E4B5B68FB60FB6803F036
:10272C000C03042B02D0082B03D027E0194B3B6180
:10273C0027E0FB689B0C03F00F03174AD35C7B600C
:10274C00FB6803F48033002B10D0114B5B685B0CDF
:10275C0003F00103114AD35CBB607B680D4A03FB99
:10276C0002F2BB68B2FBF3F37B6104E07B680C4ABA
:10277C0002FB03F37B617B693B6102E0054B3B6130
:10278C0000BF3B6918461C37BD4680BC704700BF74
:10279C000010024000127A00243000083430000887
:1027AC0000093D0080B485B000AF78600A4B1B680F
:1027BC000A4AA2FB03235B0A7A6802FB03F3FB6061
:1027CC0000BFFB685A1EFA60002BF9D100BF00BF96
:1027DC001437BD4680BC704744000020D34D6210B6
:1027EC0080B582B000AF78607B68002B01D10123EB
:1027FC0041E07B6893F83D30DBB2002B06D17B685F
:10280C00002283F83C207868FEF71AFF7B680222CE
:10281C0083F83D207B681A687B68043319461046A0
:10282C0000F056FA7B68012283F846207B6801226F
:10283C0083F83E207B68012283F83F207B680122CD
:10284C0083F840207B68012283F841207B680122B9
:10285C0083F842207B68012283F843207B680122A5
:10286C0083F844207B68012283F845207B68012291
:10287C0083F83D20002318460837BD4680BD000074
:10288C0080B485B000AF78607B6893F83D30DBB2E4
:10289C00012B01D0012335E07B68022283F83D2017
:1028AC007B681B68DA687B681B6842F00102DA609F
:1028BC007B681B68164A934209D07B681B68B3F18E
:1028CC00804F04D07B681B68124A934211D17B68FD
:1028DC001B689B6803F00703FB60FB68062B10D09A
:1028EC007B681B681A687B681B6842F001021A60DF
:1028FC0007E07B681B681A687B681B6842F0010262
:10290C001A60002318461437BD4680BC704700BFC0
:10291C00002C01400004004080B584B000AF78600A
:10292C007B681B68DB68FB607B681B681B69BB6092
:10293C00BB6803F00203002B20D0FB6803F00203FA
:10294C00002B1BD07B681B686FF002021A617B683E
:10295C0001221A777B681B689B6903F00303002B29
:10296C0003D0786800F098F905E0786800F08BF9EE
:10297C00786800F09AF97B6800221A77BB6803F03C
:10298C000403002B20D0FB6803F00403002B1BD0A6
:10299C007B681B686FF004021A617B6802221A774D
:1029AC007B681B689B6903F44073002B03D0786829
:1029BC0000F072F905E0786800F065F9786800F0CD
:1029CC0074F97B6800221A77BB6803F00803002BAC
:1029DC0020D0FB6803F00803002B1BD07B681B681E
:1029EC006FF008021A617B6804221A777B681B68F7
:1029FC00DB6903F00303002B03D0786800F04CF97B
:102A0C0005E0786800F03FF9786800F04EF97B68D3
:102A1C0000221A77BB6803F01003002B20D0FB6850
:102A2C0003F01003002B1BD07B681B686FF01002A7
:102A3C001A617B6808221A777B681B68DB6903F4D0
:102A4C004073002B03D0786800F026F905E0786815
:102A5C0000F019F9786800F028F97B6800221A77E1
:102A6C00BB6803F00103002B0CD0FB6803F00103DF
:102A7C00002B07D07B681B686FF001021A61786825
:102A8C00FEF7E8FABB6803F08003002B0CD0FB6860
:102A9C0003F08003002B07D07B681B686FF080026B
:102AAC001A61786800F06FFABB6803F04003002BE2
:102ABC000CD0FB6803F04003002B07D07B681B682D
:102ACC006FF040021A61786800F0F8F8BB6803F008
:102ADC002003002B0CD0FB6803F02003002B07D045
:102AEC007B681B686FF020021A61786800F042FA6C
:102AFC0000BF1037BD4680BD80B584B000AF786094
:102B0C0039600023FB737B6893F83C30012B01D1B7
:102B1C000223B4E07B68012283F83C207B6802220C
:102B2C0083F83D207B681B689B68BB60BB6823F007
:102B3C007703BB60BB6823F47F43BB607B681B6877
:102B4C00BA689A603B681B68B3F5005F3ED0B3F57A
:102B5C00005F00F28780B3F5805F00F08680B3F5EC
:102B6C00805F7FD8702B1AD0702B7BD8602B50D005
:102B7C00602B77D8502B3CD0502B73D8402B58D08F
:102B8C00402B6FD8302B64D0302B6BD8202B60D0DF
:102B9C00202B67D8002B5CD0102B5AD062E07B68BE
:102BAC0018683B6899683B685A683B68DB6800F0BA
:102BBC006AF97B681B689B68BB60BB6843F0770352
:102BCC00BB607B681B68BA689A604FE07B681868CA
:102BDC003B6899683B685A683B68DB6800F053F9BE
:102BEC007B681B689A687B681B6842F480429A6019
:102BFC003CE07B6818683B6859683B68DB681A46A0
:102C0C0000F0CAF87B681B685021184600F021F9C7
:102C1C002CE07B6818683B6859683B68DB681A468F
:102C2C0000F0E8F87B681B686021184600F011F989
:102C3C001CE07B6818683B6859683B68DB681A467F
:102C4C0000F0AAF87B681B684021184600F001F9D7
:102C5C000CE07B681A683B681B681946104600F04C
:102C6C00F8F803E00123FB7300E000BF7B6801224E
:102C7C0083F83D207B68002283F83C20FB7B1846C0
:102C8C001037BD4680BD80B483B000AF786000BF04
:102C9C000C37BD4680BC704780B483B000AF786001
:102CAC0000BF0C37BD4680BC704780B483B000AF0A
:102CBC00786000BF0C37BD4680BC704780B483B0D1
:102CCC0000AF786000BF0C37BD4680BC7047000079
:102CDC0080B485B000AF786039607B681B68FB609E
:102CEC007B682B4A934207D07B68B3F1804F03D0AB
:102CFC007B68284A934208D1FB6823F07003FB6081
:102D0C003B685B68FA681343FB607B68204A93421C
:102D1C0007D07B68B3F1804F03D07B681D4A934288
:102D2C0008D1FB6823F44073FB603B68DB68FA68EE
:102D3C001343FB60FB6823F080023B685B69134321
:102D4C00FB607B68FA681A603B689A687B68DA6299
:102D5C003B681A687B689A627B680D4A934203D180
:102D6C003B681A697B681A637B6801225A617B682D
:102D7C001B6903F00103002B05D07B681B6923F052
:102D8C0001027B681A6100BF1437BD4680BC7047D6
:102D9C00002C01400004004080B487B000AFF86004
:102DAC00B9607A60FB681B6A7B61FB681B6A23F065
:102DBC000102FB681A62FB689B693B613B6923F06B
:102DCC00F0033B617B681B013A6913433B617B69F0
:102DDC0023F00A037B617A69BB6813437B61FB6850
:102DEC003A699A61FB687A691A6200BF1C37BD4662
:102DFC0080BC704780B487B000AFF860B9607A606F
:102E0C00FB681B6A7B61FB681B6A23F01002FB6882
:102E1C001A62FB689B693B613B6923F470433B611D
:102E2C007B681B033A6913433B617B6923F0A00366
:102E3C007B61BB681B017A6913437B61FB683A6950
:102E4C009A61FB687A691A6200BF1C37BD4680BC68
:102E5C00704780B485B000AF786039607B689B6840
:102E6C00FB60FB6823F07003FB603A68FB6813435C
:102E7C0043F00703FB607B68FA689A6000BF143765
:102E8C00BD4680BC704780B487B000AFF860B960B5
:102E9C007A603B60FB689B687B617B6923F47F43B2
:102EAC007B613B681A027B681A43BB6813437A69DF
:102EBC0013437B61FB687A699A6000BF1C37BD467F
:102ECC0080BC704780B485B000AF786039607B6897
:102EDC0093F83C30012B01D1022341E07B680122A5
:102EEC0083F83C207B68022283F83D207B681B68BA
:102EFC005B68FB607B681B689B68BB60FB6823F0AE
:102F0C007003FB603B681B68FA681343FB607B68CB
:102F1C001B68FA685A607B681B68144A934209D094
:102F2C007B681B68B3F1804F04D07B681B68104A28
:102F3C0093420CD1BB6823F08003BB603B685B6899
:102F4C00BA681343BB607B681B68BA689A607B687D
:102F5C00012283F83D207B68002283F83C2000236B
:102F6C0018461437BD4680BC704700BF002C01408A
:102F7C000004004080B483B000AF786000BF0C3711
:102F8C00BD4680BC704780B483B000AF786000BF92
:102F9C000C37BD4680BC704703460244934200D1B7
:102FAC00704703F8011BF9E770B500260C4D0D4C6A
:102FBC00641BA410A64209D100F01AF800260A4D91
:102FCC000A4C641BA410A64205D170BD55F8043BF5
:102FDC0098470136EEE755F8043B98470136F2E77F
:102FEC003830000838300008383000083C30000811
:102FFC00F8B500BFF8BC08BC9E467047F8B500BFDA
:08300C00F8BC08BC9E467047A9
:103014000000000000000000010203040607080984
:1030240002030405060708090A0B0C0D0E0F101005
:043034000102000095
:04303800310100085A
:04303C000D0100087A
:10304000010000000100000001000000010000007C
:10305000010000000100000001000000010000006C
:10306000010000000100000001000000010000005C
:103070000100000005000000030000000200000045
:10308000FF00000000127A001000000001000000A4
:040000050800197D59
:00000001FF
